{
  "_format": "hh-sol-artifact-1",
  "contractName": "PepeCoin",
  "sourceName": "contracts/PepeCoin.sol",
  "abi": [
    {
      "inputs": [],
      "stateMutability": "nonpayable",
      "type": "constructor"
    },
    {
      "anonymous": false,
      "inputs": [
        {
          "indexed": true,
          "internalType": "address",
          "name": "_from",
          "type": "address"
        },
        {
          "indexed": false,
          "internalType": "uint256",
          "name": "_ethAmount",
          "type": "uint256"
        },
        {
          "indexed": false,
          "internalType": "uint256",
          "name": "_pepeAmount",
          "type": "uint256"
        }
      ],
      "name": "Exchange",
      "type": "event"
    },
    {
      "anonymous": false,
      "inputs": [
        {
          "indexed": true,
          "internalType": "address",
          "name": "_to",
          "type": "address"
        },
        {
          "indexed": false,
          "internalType": "uint256",
          "name": "_amount",
          "type": "uint256"
        }
      ],
      "name": "Mint",
      "type": "event"
    },
    {
      "anonymous": false,
      "inputs": [
        {
          "indexed": true,
          "internalType": "address",
          "name": "_from",
          "type": "address"
        },
        {
          "indexed": true,
          "internalType": "address",
          "name": "_to",
          "type": "address"
        },
        {
          "indexed": false,
          "internalType": "uint256",
          "name": "_value",
          "type": "uint256"
        }
      ],
      "name": "Transfer",
      "type": "event"
    },
    {
      "inputs": [
        {
          "internalType": "address",
          "name": "_owner",
          "type": "address"
        }
      ],
      "name": "balanceOf",
      "outputs": [
        {
          "internalType": "uint256",
          "name": "",
          "type": "uint256"
        }
      ],
      "stateMutability": "view",
      "type": "function"
    },
    {
      "inputs": [
        {
          "internalType": "address",
          "name": "",
          "type": "address"
        }
      ],
      "name": "balances",
      "outputs": [
        {
          "internalType": "uint256",
          "name": "",
          "type": "uint256"
        }
      ],
      "stateMutability": "view",
      "type": "function"
    },
    {
      "inputs": [],
      "name": "decimals",
      "outputs": [
        {
          "internalType": "uint8",
          "name": "",
          "type": "uint8"
        }
      ],
      "stateMutability": "view",
      "type": "function"
    },
    {
      "inputs": [],
      "name": "exchangeEthForPepe",
      "outputs": [],
      "stateMutability": "payable",
      "type": "function"
    },
    {
      "inputs": [],
      "name": "exchangeRate",
      "outputs": [
        {
          "internalType": "uint256",
          "name": "",
          "type": "uint256"
        }
      ],
      "stateMutability": "view",
      "type": "function"
    },
    {
      "inputs": [
        {
          "internalType": "address",
          "name": "_to",
          "type": "address"
        },
        {
          "internalType": "uint256",
          "name": "_amount",
          "type": "uint256"
        }
      ],
      "name": "mint",
      "outputs": [
        {
          "internalType": "bool",
          "name": "",
          "type": "bool"
        }
      ],
      "stateMutability": "nonpayable",
      "type": "function"
    },
    {
      "inputs": [],
      "name": "name",
      "outputs": [
        {
          "internalType": "string",
          "name": "",
          "type": "string"
        }
      ],
      "stateMutability": "view",
      "type": "function"
    },
    {
      "inputs": [],
      "name": "owner",
      "outputs": [
        {
          "internalType": "address",
          "name": "",
          "type": "address"
        }
      ],
      "stateMutability": "view",
      "type": "function"
    },
    {
      "inputs": [],
      "name": "symbol",
      "outputs": [
        {
          "internalType": "string",
          "name": "",
          "type": "string"
        }
      ],
      "stateMutability": "view",
      "type": "function"
    },
    {
      "inputs": [],
      "name": "totalSupply",
      "outputs": [
        {
          "internalType": "uint256",
          "name": "",
          "type": "uint256"
        }
      ],
      "stateMutability": "view",
      "type": "function"
    },
    {
      "inputs": [
        {
          "internalType": "address",
          "name": "_to",
          "type": "address"
        },
        {
          "internalType": "uint256",
          "name": "_value",
          "type": "uint256"
        }
      ],
      "name": "transfer",
      "outputs": [
        {
          "internalType": "bool",
          "name": "",
          "type": "bool"
        }
      ],
      "stateMutability": "nonpayable",
      "type": "function"
    },
    {
      "inputs": [],
      "name": "withdraw",
      "outputs": [],
      "stateMutability": "nonpayable",
      "type": "function"
    }
  ],
  "bytecode": "0x60806040526040518060400160405280600881526020017f50657065436f696e00000000000000000000000000000000000000000000000081525060009080519060200190620000519291906200018d565b506040518060400160405280600481526020017f5045504500000000000000000000000000000000000000000000000000000000815250600190805190602001906200009f9291906200018d565b5069d3c21bcecceda10000006002556012600360006101000a81548160ff021916908360ff160217905550612710600455348015620000dd57600080fd5b5033600660006101000a81548173ffffffffffffffffffffffffffffffffffffffff021916908373ffffffffffffffffffffffffffffffffffffffff16021790555060025460056000600660009054906101000a900473ffffffffffffffffffffffffffffffffffffffff1673ffffffffffffffffffffffffffffffffffffffff1673ffffffffffffffffffffffffffffffffffffffff16815260200190815260200160002081905550620002a2565b8280546200019b906200023d565b90600052602060002090601f016020900481019282620001bf57600085556200020b565b82601f10620001da57805160ff19168380011785556200020b565b828001600101855582156200020b579182015b828111156200020a578251825591602001919060010190620001ed565b5b5090506200021a91906200021e565b5090565b5b80821115620002395760008160009055506001016200021f565b5090565b600060028204905060018216806200025657607f821691505b602082108114156200026d576200026c62000273565b5b50919050565b7f4e487b7100000000000000000000000000000000000000000000000000000000600052602260045260246000fd5b6113fc80620002b26000396000f3fe6080604052600436106100a75760003560e01c806340c10f191161006457806340c10f19146101ac57806370a08231146101e957806378da2e87146102265780638da5cb5b1461023057806395d89b411461025b578063a9059cbb14610286576100a7565b806306fdde03146100ac57806318160ddd146100d757806327e235e314610102578063313ce5671461013f5780633ba0b9a91461016a5780633ccfd60b14610195575b600080fd5b3480156100b857600080fd5b506100c16102c3565b6040516100ce9190610fee565b60405180910390f35b3480156100e357600080fd5b506100ec610351565b6040516100f99190611110565b60405180910390f35b34801561010e57600080fd5b5061012960048036038101906101249190610cb8565b610357565b6040516101369190611110565b60405180910390f35b34801561014b57600080fd5b5061015461036f565b6040516101619190611154565b60405180910390f35b34801561017657600080fd5b5061017f610382565b60405161018c9190611110565b60405180910390f35b3480156101a157600080fd5b506101aa610388565b005b3480156101b857600080fd5b506101d360048036038101906101ce9190610ce1565b610483565b6040516101e09190610fd3565b60405180910390f35b3480156101f557600080fd5b50610210600480360381019061020b9190610cb8565b6106e1565b60405161021d9190611110565b60405180910390f35b61022e61072a565b005b34801561023c57600080fd5b506102456109cb565b6040516102529190610fb8565b60405180910390f35b34801561026757600080fd5b506102706109f1565b60405161027d9190610fee565b60405180910390f35b34801561029257600080fd5b506102ad60048036038101906102a89190610ce1565b610a7f565b6040516102ba9190610fd3565b60405180910390f35b600080546102d0906112f7565b80601f01602080910402602001604051908101604052809291908181526020018280546102fc906112f7565b80156103495780601f1061031e57610100808354040283529160200191610349565b820191906000526020600020905b81548152906001019060200180831161032c57829003601f168201915b505050505081565b60025481565b60056020528060005260406000206000915090505481565b600360009054906101000a900460ff1681565b60045481565b600660009054906101000a900473ffffffffffffffffffffffffffffffffffffffff1673ffffffffffffffffffffffffffffffffffffffff163373ffffffffffffffffffffffffffffffffffffffff1614610418576040517f08c379a000000000000000000000000000000000000000000000000000000000815260040161040f906110b0565b60405180910390fd5b600660009054906101000a900473ffffffffffffffffffffffffffffffffffffffff1673ffffffffffffffffffffffffffffffffffffffff166108fc479081150290604051600060405180830381858888f19350505050158015610480573d6000803e3d6000fd5b50565b6000600660009054906101000a900473ffffffffffffffffffffffffffffffffffffffff1673ffffffffffffffffffffffffffffffffffffffff163373ffffffffffffffffffffffffffffffffffffffff1614610515576040517f08c379a000000000000000000000000000000000000000000000000000000000815260040161050c90611010565b60405180910390fd5b60008211610558576040517f08c379a000000000000000000000000000000000000000000000000000000000815260040161054f90611050565b60405180910390fd5b6b033b2e3c9fd0803ce800000082600254610573919061118b565b11156105b4576040517f08c379a00000000000000000000000000000000000000000000000000000000081526004016105ab906110f0565b60405180910390fd5b81600260008282546105c6919061118b565b9250508190555081600560008573ffffffffffffffffffffffffffffffffffffffff1673ffffffffffffffffffffffffffffffffffffffff168152602001908152602001600020600082825461061c919061118b565b925050819055508273ffffffffffffffffffffffffffffffffffffffff167f0f6798a560793a54c3bcfe86a93cde1e73087d944c0ea20544137d4121396885836040516106699190611110565b60405180910390a28273ffffffffffffffffffffffffffffffffffffffff16600073ffffffffffffffffffffffffffffffffffffffff167fddf252ad1be2c89b69c2b068fc378daa952ba7f163c4a11628f55a4df523b3ef846040516106cf9190611110565b60405180910390a36001905092915050565b6000600560008373ffffffffffffffffffffffffffffffffffffffff1673ffffffffffffffffffffffffffffffffffffffff168152602001908152602001600020549050919050565b6000341161076d576040517f08c379a000000000000000000000000000000000000000000000000000000000815260040161076490611090565b60405180910390fd5b60006004543461077d91906111e1565b90508060056000600660009054906101000a900473ffffffffffffffffffffffffffffffffffffffff1673ffffffffffffffffffffffffffffffffffffffff1673ffffffffffffffffffffffffffffffffffffffff168152602001908152602001600020541015610823576040517f08c379a000000000000000000000000000000000000000000000000000000000815260040161081a906110d0565b60405180910390fd5b8060056000600660009054906101000a900473ffffffffffffffffffffffffffffffffffffffff1673ffffffffffffffffffffffffffffffffffffffff1673ffffffffffffffffffffffffffffffffffffffff1681526020019081526020016000206000828254610894919061123b565b9250508190555080600560003373ffffffffffffffffffffffffffffffffffffffff1673ffffffffffffffffffffffffffffffffffffffff16815260200190815260200160002060008282546108ea919061118b565b925050819055503373ffffffffffffffffffffffffffffffffffffffff167f26981b9aefbb0f732b0264bd34c255e831001eb50b06bc85b32cc39e14389721348360405161093992919061112b565b60405180910390a23373ffffffffffffffffffffffffffffffffffffffff16600660009054906101000a900473ffffffffffffffffffffffffffffffffffffffff1673ffffffffffffffffffffffffffffffffffffffff167fddf252ad1be2c89b69c2b068fc378daa952ba7f163c4a11628f55a4df523b3ef836040516109c09190611110565b60405180910390a350565b600660009054906101000a900473ffffffffffffffffffffffffffffffffffffffff1681565b600180546109fe906112f7565b80601f0160208091040260200160405190810160405280929190818152602001828054610a2a906112f7565b8015610a775780601f10610a4c57610100808354040283529160200191610a77565b820191906000526020600020905b815481529060010190602001808311610a5a57829003601f168201915b505050505081565b600081600560003373ffffffffffffffffffffffffffffffffffffffff1673ffffffffffffffffffffffffffffffffffffffff168152602001908152602001600020541015610b03576040517f08c379a0000000000000000000000000000000000000000000000000000000008152600401610afa90611070565b60405180910390fd5b600073ffffffffffffffffffffffffffffffffffffffff168373ffffffffffffffffffffffffffffffffffffffff161415610b73576040517f08c379a0000000000000000000000000000000000000000000000000000000008152600401610b6a90611030565b60405180910390fd5b81600560003373ffffffffffffffffffffffffffffffffffffffff1673ffffffffffffffffffffffffffffffffffffffff1681526020019081526020016000206000828254610bc2919061123b565b9250508190555081600560008573ffffffffffffffffffffffffffffffffffffffff1673ffffffffffffffffffffffffffffffffffffffff1681526020019081526020016000206000828254610c18919061118b565b925050819055508273ffffffffffffffffffffffffffffffffffffffff163373ffffffffffffffffffffffffffffffffffffffff167fddf252ad1be2c89b69c2b068fc378daa952ba7f163c4a11628f55a4df523b3ef84604051610c7c9190611110565b60405180910390a36001905092915050565b600081359050610c9d81611398565b92915050565b600081359050610cb2816113af565b92915050565b600060208284031215610cca57600080fd5b6000610cd884828501610c8e565b91505092915050565b60008060408385031215610cf457600080fd5b6000610d0285828601610c8e565b9250506020610d1385828601610ca3565b9150509250929050565b610d268161126f565b82525050565b610d3581611281565b82525050565b6000610d468261116f565b610d50818561117a565b9350610d608185602086016112c4565b610d6981611387565b840191505092915050565b6000610d8160178361117a565b91507f4f6e6c7920746865206f776e65722063616e206d696e740000000000000000006000830152602082019050919050565b6000610dc1600f8361117a565b91507f496e76616c6964206164647265737300000000000000000000000000000000006000830152602082019050919050565b6000610e0160208361117a565b91507f416d6f756e74206d7573742062652067726561746572207468616e207a65726f6000830152602082019050919050565b6000610e4160148361117a565b91507f496e73756666696369656e742062616c616e63650000000000000000000000006000830152602082019050919050565b6000610e8160148361117a565b91507f53656e642045544820746f2065786368616e67650000000000000000000000006000830152602082019050919050565b6000610ec160178361117a565b91507f4f6e6c79206f776e65722063616e2077697468647261770000000000000000006000830152602082019050919050565b6000610f0160258361117a565b91507f496e73756666696369656e7420504550452062616c616e636520696e20636f6e60008301527f74726163740000000000000000000000000000000000000000000000000000006020830152604082019050919050565b6000610f67601a8361117a565b91507f546f74616c20737570706c792065786365656473206c696d69740000000000006000830152602082019050919050565b610fa3816112ad565b82525050565b610fb2816112b7565b82525050565b6000602082019050610fcd6000830184610d1d565b92915050565b6000602082019050610fe86000830184610d2c565b92915050565b600060208201905081810360008301526110088184610d3b565b905092915050565b6000602082019050818103600083015261102981610d74565b9050919050565b6000602082019050818103600083015261104981610db4565b9050919050565b6000602082019050818103600083015261106981610df4565b9050919050565b6000602082019050818103600083015261108981610e34565b9050919050565b600060208201905081810360008301526110a981610e74565b9050919050565b600060208201905081810360008301526110c981610eb4565b9050919050565b600060208201905081810360008301526110e981610ef4565b9050919050565b6000602082019050818103600083015261110981610f5a565b9050919050565b60006020820190506111256000830184610f9a565b92915050565b60006040820190506111406000830185610f9a565b61114d6020830184610f9a565b9392505050565b60006020820190506111696000830184610fa9565b92915050565b600081519050919050565b600082825260208201905092915050565b6000611196826112ad565b91506111a1836112ad565b9250827fffffffffffffffffffffffffffffffffffffffffffffffffffffffffffffffff038211156111d6576111d5611329565b5b828201905092915050565b60006111ec826112ad565b91506111f7836112ad565b9250817fffffffffffffffffffffffffffffffffffffffffffffffffffffffffffffffff04831182151516156112305761122f611329565b5b828202905092915050565b6000611246826112ad565b9150611251836112ad565b92508282101561126457611263611329565b5b828203905092915050565b600061127a8261128d565b9050919050565b60008115159050919050565b600073ffffffffffffffffffffffffffffffffffffffff82169050919050565b6000819050919050565b600060ff82169050919050565b60005b838110156112e25780820151818401526020810190506112c7565b838111156112f1576000848401525b50505050565b6000600282049050600182168061130f57607f821691505b6020821081141561132357611322611358565b5b50919050565b7f4e487b7100000000000000000000000000000000000000000000000000000000600052601160045260246000fd5b7f4e487b7100000000000000000000000000000000000000000000000000000000600052602260045260246000fd5b6000601f19601f8301169050919050565b6113a18161126f565b81146113ac57600080fd5b50565b6113b8816112ad565b81146113c357600080fd5b5056fea2646970667358221220c181a08691dc1331063a9875757550259e208d8486a1a3c4b1c65ffac495bd8664736f6c63430008000033",
  "linkReferences": {},
  "deployedLinkReferences": {}
}