{
  "_format": "hh-sol-artifact-1",
  "contractName": "ReferralAndTasks",
  "sourceName": "contracts/ReferralAndTasks.sol",
  "abi": [
    {
      "inputs": [],
      "name": "completeTask",
      "outputs": [],
      "stateMutability": "nonpayable",
      "type": "function"
    },
    {
      "inputs": [],
      "name": "referralReward",
      "outputs": [
        {
          "internalType": "uint256",
          "name": "",
          "type": "uint256"
        }
      ],
      "stateMutability": "view",
      "type": "function"
    },
    {
      "inputs": [
        {
          "internalType": "address",
          "name": "",
          "type": "address"
        }
      ],
      "name": "referrals",
      "outputs": [
        {
          "internalType": "address",
          "name": "",
          "type": "address"
        }
      ],
      "stateMutability": "view",
      "type": "function"
    },
    {
      "inputs": [
        {
          "internalType": "address",
          "name": "referrer",
          "type": "address"
        }
      ],
      "name": "registerUser",
      "outputs": [],
      "stateMutability": "nonpayable",
      "type": "function"
    },
    {
      "inputs": [],
      "name": "taskCooldown",
      "outputs": [
        {
          "internalType": "uint256",
          "name": "",
          "type": "uint256"
        }
      ],
      "stateMutability": "view",
      "type": "function"
    },
    {
      "inputs": [],
      "name": "taskReward",
      "outputs": [
        {
          "internalType": "uint256",
          "name": "",
          "type": "uint256"
        }
      ],
      "stateMutability": "view",
      "type": "function"
    },
    {
      "inputs": [
        {
          "internalType": "address",
          "name": "",
          "type": "address"
        }
      ],
      "name": "users",
      "outputs": [
        {
          "internalType": "address",
          "name": "walletAddress",
          "type": "address"
        },
        {
          "internalType": "uint256",
          "name": "rewardBalance",
          "type": "uint256"
        },
        {
          "internalType": "uint256",
          "name": "lastTaskCompletionTime",
          "type": "uint256"
        }
      ],
      "stateMutability": "view",
      "type": "function"
    },
    {
      "inputs": [],
      "name": "withdrawRewards",
      "outputs": [],
      "stateMutability": "nonpayable",
      "type": "function"
    },
    {
      "stateMutability": "payable",
      "type": "receive"
    }
  ],
  "bytecode": "0x6080604052606460025560326003556201518060045534801561002157600080fd5b50610c80806100316000396000f3fe60806040526004361061007f5760003560e01c80639ca423b31161004e5780639ca423b314610121578063a87430ba1461015e578063c7b8981c1461019d578063ea5fdd1e146101b457610086565b80632199d5cd1461008b5780632bf403a3146100b457806343bb8db5146100df5780634d683674146100f657610086565b3661008657005b600080fd5b34801561009757600080fd5b506100b260048036038101906100ad919061092d565b6101df565b005b3480156100c057600080fd5b506100c961052a565b6040516100d69190610b46565b60405180910390f35b3480156100eb57600080fd5b506100f4610530565b005b34801561010257600080fd5b5061010b610734565b6040516101189190610b46565b60405180910390f35b34801561012d57600080fd5b506101486004803603810190610143919061092d565b61073a565b6040516101559190610a74565b60405180910390f35b34801561016a57600080fd5b506101856004803603810190610180919061092d565b61076d565b60405161019493929190610a8f565b60405180910390f35b3480156101a957600080fd5b506101b26107b7565b005b3480156101c057600080fd5b506101c9610912565b6040516101d69190610b46565b60405180910390f35b600073ffffffffffffffffffffffffffffffffffffffff166000803373ffffffffffffffffffffffffffffffffffffffff1673ffffffffffffffffffffffffffffffffffffffff16815260200190815260200160002060000160009054906101000a900473ffffffffffffffffffffffffffffffffffffffff1673ffffffffffffffffffffffffffffffffffffffff16146102af576040517f08c379a00000000000000000000000000000000000000000000000000000000081526004016102a690610b26565b60405180910390fd5b60405180606001604052803373ffffffffffffffffffffffffffffffffffffffff1681526020016000815260200160008152506000803373ffffffffffffffffffffffffffffffffffffffff1673ffffffffffffffffffffffffffffffffffffffff16815260200190815260200160002060008201518160000160006101000a81548173ffffffffffffffffffffffffffffffffffffffff021916908373ffffffffffffffffffffffffffffffffffffffff1602179055506020820151816001015560408201518160020155905050600073ffffffffffffffffffffffffffffffffffffffff168173ffffffffffffffffffffffffffffffffffffffff16141580156104495750600073ffffffffffffffffffffffffffffffffffffffff166000808373ffffffffffffffffffffffffffffffffffffffff1673ffffffffffffffffffffffffffffffffffffffff16815260200190815260200160002060000160009054906101000a900473ffffffffffffffffffffffffffffffffffffffff1673ffffffffffffffffffffffffffffffffffffffff1614155b156105275780600160003373ffffffffffffffffffffffffffffffffffffffff1673ffffffffffffffffffffffffffffffffffffffff16815260200190815260200160002060006101000a81548173ffffffffffffffffffffffffffffffffffffffff021916908373ffffffffffffffffffffffffffffffffffffffff1602179055506002546000808373ffffffffffffffffffffffffffffffffffffffff1673ffffffffffffffffffffffffffffffffffffffff168152602001908152602001600020600101600082825461051f9190610b72565b925050819055505b50565b60045481565b600073ffffffffffffffffffffffffffffffffffffffff166000803373ffffffffffffffffffffffffffffffffffffffff1673ffffffffffffffffffffffffffffffffffffffff16815260200190815260200160002060000160009054906101000a900473ffffffffffffffffffffffffffffffffffffffff1673ffffffffffffffffffffffffffffffffffffffff161415610601576040517f08c379a00000000000000000000000000000000000000000000000000000000081526004016105f890610ae6565b60405180910390fd5b6004546000803373ffffffffffffffffffffffffffffffffffffffff1673ffffffffffffffffffffffffffffffffffffffff168152602001908152602001600020600201546106509190610b72565b421015610692576040517f08c379a000000000000000000000000000000000000000000000000000000000815260040161068990610ac6565b60405180910390fd5b6003546000803373ffffffffffffffffffffffffffffffffffffffff1673ffffffffffffffffffffffffffffffffffffffff16815260200190815260200160002060010160008282546106e59190610b72565b92505081905550426000803373ffffffffffffffffffffffffffffffffffffffff1673ffffffffffffffffffffffffffffffffffffffff16815260200190815260200160002060020181905550565b60025481565b60016020528060005260406000206000915054906101000a900473ffffffffffffffffffffffffffffffffffffffff1681565b60006020528060005260406000206000915090508060000160009054906101000a900473ffffffffffffffffffffffffffffffffffffffff16908060010154908060020154905083565b60008060003373ffffffffffffffffffffffffffffffffffffffff1673ffffffffffffffffffffffffffffffffffffffff168152602001908152602001600020600101541161083b576040517f08c379a000000000000000000000000000000000000000000000000000000000815260040161083290610b06565b60405180910390fd5b60008060003373ffffffffffffffffffffffffffffffffffffffff1673ffffffffffffffffffffffffffffffffffffffff16815260200190815260200160002060010154905060008060003373ffffffffffffffffffffffffffffffffffffffff1673ffffffffffffffffffffffffffffffffffffffff168152602001908152602001600020600101819055503373ffffffffffffffffffffffffffffffffffffffff166108fc829081150290604051600060405180830381858888f1935050505015801561090e573d6000803e3d6000fd5b5050565b60035481565b60008135905061092781610c33565b92915050565b60006020828403121561093f57600080fd5b600061094d84828501610918565b91505092915050565b61095f81610bc8565b82525050565b6000610972601c83610b61565b91507f5461736b20616c726561647920636f6d706c6574656420746f646179000000006000830152602082019050919050565b60006109b2601383610b61565b91507f55736572206e6f742072656769737465726564000000000000000000000000006000830152602082019050919050565b60006109f2601683610b61565b91507f4e6f207265776172647320746f207769746864726177000000000000000000006000830152602082019050919050565b6000610a32601783610b61565b91507f5573657220616c726561647920726567697374657265640000000000000000006000830152602082019050919050565b610a6e81610bfa565b82525050565b6000602082019050610a896000830184610956565b92915050565b6000606082019050610aa46000830186610956565b610ab16020830185610a65565b610abe6040830184610a65565b949350505050565b60006020820190508181036000830152610adf81610965565b9050919050565b60006020820190508181036000830152610aff816109a5565b9050919050565b60006020820190508181036000830152610b1f816109e5565b9050919050565b60006020820190508181036000830152610b3f81610a25565b9050919050565b6000602082019050610b5b6000830184610a65565b92915050565b600082825260208201905092915050565b6000610b7d82610bfa565b9150610b8883610bfa565b9250827fffffffffffffffffffffffffffffffffffffffffffffffffffffffffffffffff03821115610bbd57610bbc610c04565b5b828201905092915050565b6000610bd382610bda565b9050919050565b600073ffffffffffffffffffffffffffffffffffffffff82169050919050565b6000819050919050565b7f4e487b7100000000000000000000000000000000000000000000000000000000600052601160045260246000fd5b610c3c81610bc8565b8114610c4757600080fd5b5056fea2646970667358221220ec76c0b254f0830a1abe2635ab7a6f9a3676be1faa3d627f70c3fdb07ab1ff1d64736f6c63430008000033",
  "linkReferences": {},
  "deployedLinkReferences": {}
}